{
  "contractName": "Event",
  "abi": [
    {
      "anonymous": false,
      "inputs": [
        {
          "indexed": false,
          "internalType": "address",
          "name": "from",
          "type": "address"
        },
        {
          "indexed": false,
          "internalType": "address",
          "name": "to",
          "type": "address"
        },
        {
          "indexed": false,
          "internalType": "string",
          "name": "data",
          "type": "string"
        },
        {
          "indexed": false,
          "internalType": "uint256",
          "name": "date",
          "type": "uint256"
        },
        {
          "indexed": true,
          "internalType": "enum Event.Step",
          "name": "step",
          "type": "uint8"
        }
      ],
      "name": "Transfer",
      "type": "event"
    },
    {
      "inputs": [],
      "name": "data",
      "outputs": [
        {
          "internalType": "string",
          "name": "",
          "type": "string"
        }
      ],
      "stateMutability": "view",
      "type": "function",
      "constant": true
    },
    {
      "inputs": [
        {
          "internalType": "address",
          "name": "to",
          "type": "address"
        },
        {
          "internalType": "string",
          "name": "_data",
          "type": "string"
        }
      ],
      "name": "send",
      "outputs": [],
      "stateMutability": "nonpayable",
      "type": "function"
    },
    {
      "inputs": [
        {
          "internalType": "address",
          "name": "to",
          "type": "address"
        },
        {
          "internalType": "string",
          "name": "_data",
          "type": "string"
        }
      ],
      "name": "receiv",
      "outputs": [],
      "stateMutability": "nonpayable",
      "type": "function"
    }
  ],
  "bytecode": "0x60806040526040518060400160405280601681526020017f48656c6c6f206f7468657220626c6f636b636861696e00000000000000000000815250600090816200004a9190620002d9565b503480156200005857600080fd5b50620003c0565b600081519050919050565b7f4e487b7100000000000000000000000000000000000000000000000000000000600052604160045260246000fd5b7f4e487b7100000000000000000000000000000000000000000000000000000000600052602260045260246000fd5b60006002820490506001821680620000e157607f821691505b602082108103620000f757620000f662000099565b5b50919050565b60008190508160005260206000209050919050565b60006020601f8301049050919050565b600082821b905092915050565b600060088302620001617fffffffffffffffffffffffffffffffffffffffffffffffffffffffffffffffff8262000122565b6200016d868362000122565b95508019841693508086168417925050509392505050565b6000819050919050565b6000819050919050565b6000620001ba620001b4620001ae8462000185565b6200018f565b62000185565b9050919050565b6000819050919050565b620001d68362000199565b620001ee620001e582620001c1565b8484546200012f565b825550505050565b600090565b62000205620001f6565b62000212818484620001cb565b505050565b5b818110156200023a576200022e600082620001fb565b60018101905062000218565b5050565b601f82111562000289576200025381620000fd565b6200025e8462000112565b810160208510156200026e578190505b620002866200027d8562000112565b83018262000217565b50505b505050565b600082821c905092915050565b6000620002ae600019846008026200028e565b1980831691505092915050565b6000620002c983836200029b565b9150826002028217905092915050565b620002e4826200005f565b67ffffffffffffffff8111156200030057620002ff6200006a565b5b6200030c8254620000c8565b620003198282856200023e565b600060209050601f8311600181146200035157600084156200033c578287015190505b620003488582620002bb565b865550620003b8565b601f1984166200036186620000fd565b60005b828110156200038b5784890151825560018201915060208501945060208101905062000364565b86831015620003ab5784890151620003a7601f8916826200029b565b8355505b6001600288020188555050505b505050505050565b6105c180620003d06000396000f3fe608060405234801561001057600080fd5b50600436106100415760003560e01c806373d4a13a1461004657806399142b5f14610064578063ab60eddb14610080575b600080fd5b61004e61009c565b60405161005b9190610263565b60405180910390f35b61007e6004803603810190610079919061042c565b61012a565b005b61009a6004803603810190610095919061042c565b61017f565b005b600080546100a9906104b7565b80601f01602080910402602001604051908101604052809291908181526020018280546100d5906104b7565b80156101225780601f106100f757610100808354040283529160200191610122565b820191906000526020600020905b81548152906001019060200180831161010557829003601f168201915b505050505081565b6000600181111561013e5761013d6104e8565b5b7fd5024d416a46b2b3a3371f87c28a7c402690e609bd2f9e2a383ab887cdf22e0f33848442604051610173949392919061053f565b60405180910390a25050565b600180811115610192576101916104e8565b5b7fd5024d416a46b2b3a3371f87c28a7c402690e609bd2f9e2a383ab887cdf22e0f338484426040516101c7949392919061053f565b60405180910390a25050565b600081519050919050565b600082825260208201905092915050565b60005b8381101561020d5780820151818401526020810190506101f2565b60008484015250505050565b6000601f19601f8301169050919050565b6000610235826101d3565b61023f81856101de565b935061024f8185602086016101ef565b61025881610219565b840191505092915050565b6000602082019050818103600083015261027d818461022a565b905092915050565b6000604051905090565b600080fd5b600080fd5b600073ffffffffffffffffffffffffffffffffffffffff82169050919050565b60006102c482610299565b9050919050565b6102d4816102b9565b81146102df57600080fd5b50565b6000813590506102f1816102cb565b92915050565b600080fd5b600080fd5b7f4e487b7100000000000000000000000000000000000000000000000000000000600052604160045260246000fd5b61033982610219565b810181811067ffffffffffffffff8211171561035857610357610301565b5b80604052505050565b600061036b610285565b90506103778282610330565b919050565b600067ffffffffffffffff82111561039757610396610301565b5b6103a082610219565b9050602081019050919050565b82818337600083830152505050565b60006103cf6103ca8461037c565b610361565b9050828152602081018484840111156103eb576103ea6102fc565b5b6103f68482856103ad565b509392505050565b600082601f830112610413576104126102f7565b5b81356104238482602086016103bc565b91505092915050565b600080604083850312156104435761044261028f565b5b6000610451858286016102e2565b925050602083013567ffffffffffffffff81111561047257610471610294565b5b61047e858286016103fe565b9150509250929050565b7f4e487b7100000000000000000000000000000000000000000000000000000000600052602260045260246000fd5b600060028204905060018216806104cf57607f821691505b6020821081036104e2576104e1610488565b5b50919050565b7f4e487b7100000000000000000000000000000000000000000000000000000000600052602160045260246000fd5b610520816102b9565b82525050565b6000819050919050565b61053981610526565b82525050565b60006080820190506105546000830187610517565b6105616020830186610517565b8181036040830152610573818561022a565b90506105826060830184610530565b9594505050505056fea2646970667358221220cc458c2d1420f51b534a5c7106d9de019cdb4a86e27a4a0f648dea66d1c2efaf64736f6c63430008130033",
  "immutableReferences": {},
  "source": "pragma solidity ^0.8.0;\n\ncontract Event {\n  string public data = \"Hello other blockchain\";\n\n  enum Step { Send, Receive }\n  event Transfer(\n    address from,\n    address to,\n    string data,\n    uint date,\n    Step indexed step\n  );\n\n  function send(address to, string memory _data) external {\n    emit Transfer(\n      msg.sender,\n      to,\n      _data,\n      block.timestamp,\n      Step.Send\n    );\n  } \n  \n    function receiv(address to, string memory _data) external {\n    emit Transfer(\n      msg.sender,\n      to,\n      _data,\n      block.timestamp,\n      Step.Receive\n    );\n  }\n\n}",
  "sourcePath": "/home/mahir/blockchain/Cross Chain Bridge/contracts/Event.sol",
  "compiler": {
    "name": "solc",
    "version": "0.8.19+commit.7dd6d404.Emscripten.clang"
  },
  "schemaVersion": "3.4.13",
  "updatedAt": "2023-05-10T13:01:39.089Z",
  "networkType": "ethereum",
  "devdoc": {
    "kind": "dev",
    "methods": {},
    "version": 1
  },
  "userdoc": {
    "kind": "user",
    "methods": {},
    "version": 1
  }
}